{
  "contractName": "Election",
  "abi": [
    {
      "inputs": [],
      "name": "count",
      "outputs": [
        {
          "internalType": "uint256",
          "name": "red_total",
          "type": "uint256"
        },
        {
          "internalType": "uint256",
          "name": "blue_total",
          "type": "uint256"
        }
      ],
      "stateMutability": "view",
      "type": "function",
      "constant": true
    },
    {
      "inputs": [
        {
          "internalType": "string",
          "name": "_candidate",
          "type": "string"
        }
      ],
      "name": "Vote",
      "outputs": [],
      "stateMutability": "nonpayable",
      "type": "function"
    },
    {
      "inputs": [],
      "name": "GetCount",
      "outputs": [
        {
          "internalType": "uint256",
          "name": "redVotes",
          "type": "uint256"
        },
        {
          "internalType": "uint256",
          "name": "blueVotes",
          "type": "uint256"
        }
      ],
      "stateMutability": "view",
      "type": "function",
      "constant": true
    }
  ],
  "bytecode": "0x608060405234801561001057600080fd5b5061037d806100206000396000f3fe608060405234801561001057600080fd5b50600436106100415760003560e01c806306661abd146100465780630ab939711461006d578063323082d714610078575b600080fd5b600054600154610054919082565b6040805192835260208301919091520160405180910390f35b600054600154610054565b61008b610086366004610240565b61008d565b005b3360009081526002602052604090205460ff16156100f25760405162461bcd60e51b815260206004820152601960248201527f416464726573732068617320616c726561647920766f7465640000000000000060448201526064015b60405180910390fd5b6040516214995960ea1b6020820152602301604051602081830303815290604052805190602001208160405160200161012b91906102f1565b604051602081830303815290604052805190602001200361016657600160008001600082825461015b9190610320565b9091555061020d9050565b60405163426c756560e01b602082015260240160405160208183030381529060405280519060200120816040516020016101a091906102f1565b60405160208183030381529060405280519060200120036101d15760016000600101600082825461015b9190610320565b60405162461bcd60e51b8152602060048201526011602482015270496e76616c69642063616e64696461746560781b60448201526064016100e9565b50336000908152600260205260409020805460ff19166001179055565b634e487b7160e01b600052604160045260246000fd5b60006020828403121561025257600080fd5b813567ffffffffffffffff8082111561026a57600080fd5b818401915084601f83011261027e57600080fd5b8135818111156102905761029061022a565b604051601f8201601f19908116603f011681019083821181831017156102b8576102b861022a565b816040528281528760208487010111156102d157600080fd5b826020860160208301376000928101602001929092525095945050505050565b6000825160005b8181101561031257602081860181015185830152016102f8565b506000920191825250919050565b8082018082111561034157634e487b7160e01b600052601160045260246000fd5b9291505056fea26469706673582212202c9ff0d9f31e4182f49672d88a32df44c19a696a631ea8f613b1fa07337e9d8464736f6c63430008110033",
  "immutableReferences": {},
  "source": "// SPDX-License-Identifier: MIT\r\npragma solidity ^0.8.0;\r\n\r\ncontract Election {\r\n    struct Counts {\r\n        uint256 red_total; // Total votes for red candidate\r\n        uint256 blue_total; // Total votes for blue candidate\r\n    }\r\n\r\n    Counts public count;\r\n\r\n    mapping(address => bool) private hasVoted;\r\n\r\n    // Vote function: Cast a vote for \"Red\" or \"Blue\"\r\n    function Vote(string memory _candidate) public {\r\n        // Ensure the voter hasn't already voted\r\n        require(!hasVoted[msg.sender], \"Address has already voted\");\r\n\r\n        // Check the candidate and increment the respective count\r\n        if (keccak256(abi.encodePacked(_candidate)) == keccak256(abi.encodePacked(\"Red\"))) {\r\n            count.red_total += 1;\r\n        } else if (keccak256(abi.encodePacked(_candidate)) == keccak256(abi.encodePacked(\"Blue\"))) {\r\n            count.blue_total += 1;\r\n        } else {\r\n            revert(\"Invalid candidate\"); // Reject invalid candidates\r\n        }\r\n\r\n        // Mark the sender as having voted\r\n        hasVoted[msg.sender] = true;\r\n    }\r\n\r\n    // GetCount function: Return the current vote totals\r\n    function GetCount() public view returns (uint256 redVotes, uint256 blueVotes) {\r\n        return (count.red_total, count.blue_total);\r\n    }\r\n}\r\n",
  "sourcePath": "/mnt/c/Users/luke4/Desktop/BlockchainVoting/backend/contracts/election.sol",
  "compiler": {
    "name": "solc",
    "version": "0.8.17+commit.8df45f5f.Emscripten.clang"
  },
  "schemaVersion": "3.4.16",
  "updatedAt": "2024-11-20T00:24:23.573Z",
  "networkType": "ethereum",
  "devdoc": {
    "kind": "dev",
    "methods": {},
    "version": 1
  },
  "userdoc": {
    "kind": "user",
    "methods": {},
    "version": 1
  }
}