{
  "contractName": "Election",
  "abi": [
    {
      "inputs": [],
      "stateMutability": "nonpayable",
      "type": "constructor"
    },
    {
      "inputs": [
        {
          "internalType": "address",
          "name": "",
          "type": "address"
        }
      ],
      "name": "voters",
      "outputs": [
        {
          "internalType": "string",
          "name": "firstName",
          "type": "string"
        },
        {
          "internalType": "string",
          "name": "lastName",
          "type": "string"
        },
        {
          "internalType": "uint256",
          "name": "voterId",
          "type": "uint256"
        }
      ],
      "stateMutability": "view",
      "type": "function"
    },
    {
      "inputs": [
        {
          "internalType": "string",
          "name": "_candidate",
          "type": "string"
        }
      ],
      "name": "Vote",
      "outputs": [],
      "stateMutability": "nonpayable",
      "type": "function"
    },
    {
      "inputs": [],
      "name": "GetVote",
      "outputs": [
        {
          "internalType": "string",
          "name": "",
          "type": "string"
        }
      ],
      "stateMutability": "view",
      "type": "function"
    },
    {
      "inputs": [],
      "name": "GetCount",
      "outputs": [
        {
          "components": [
            {
              "internalType": "uint64",
              "name": "red_total",
              "type": "uint64"
            },
            {
              "internalType": "uint64",
              "name": "blue_total",
              "type": "uint64"
            }
          ],
          "internalType": "struct Election.Counts",
          "name": "",
          "type": "tuple"
        }
      ],
      "stateMutability": "view",
      "type": "function"
    },
    {
      "inputs": [
        {
          "internalType": "string",
          "name": "_firstName",
          "type": "string"
        },
        {
          "internalType": "string",
          "name": "_lastName",
          "type": "string"
        },
        {
          "internalType": "uint256",
          "name": "_voterId",
          "type": "uint256"
        }
      ],
      "name": "registerVoter",
      "outputs": [],
      "stateMutability": "nonpayable",
      "type": "function"
    }
  ],
  "bytecode": "0x608060405234801561000f575f80fd5b5060405180604001604052805f67ffffffffffffffff1681526020015f67ffffffffffffffff1681525060115f820151815f015f6101000a81548167ffffffffffffffff021916908367ffffffffffffffff1602179055506020820151815f0160086101000a81548167ffffffffffffffff021916908367ffffffffffffffff160217905550905050610d8c806100a55f395ff3fe608060405234801561000f575f80fd5b5060043610610055575f3560e01c80630ab9397114610059578063323082d714610077578063a3ec138d14610093578063a6051de7146100c5578063ae17a82a146100e3575b5f80fd5b6100616100ff565b60405161006e919061054e565b60405180910390f35b610091600480360381019061008c91906106b4565b61017a565b005b6100ad60048036038101906100a89190610755565b61027e565b6040516100bc93929190610812565b60405180910390f35b6100cd6103b0565b6040516100da9190610855565b60405180910390f35b6100fd60048036038101906100f8919061089f565b61043f565b005b6101076104d3565b60116040518060400160405290815f82015f9054906101000a900467ffffffffffffffff1667ffffffffffffffff1667ffffffffffffffff1681526020015f820160089054906101000a900467ffffffffffffffff1667ffffffffffffffff1667ffffffffffffffff1681525050905090565b805f90816101889190610b21565b5060405160200161019890610c44565b604051602081830303815290604052805190602001205f6040516020016101bf9190610cd8565b604051602081830303815290604052805190602001200361022c57600160115f015f8282829054906101000a900467ffffffffffffffff166102019190610d1b565b92506101000a81548167ffffffffffffffff021916908367ffffffffffffffff16021790555061027b565b600160115f0160088282829054906101000a900467ffffffffffffffff166102549190610d1b565b92506101000a81548167ffffffffffffffff021916908367ffffffffffffffff1602179055505b50565b6012602052805f5260405f205f91509050805f01805461029d90610954565b80601f01602080910402602001604051908101604052809291908181526020018280546102c990610954565b80156103145780601f106102eb57610100808354040283529160200191610314565b820191905f5260205f20905b8154815290600101906020018083116102f757829003601f168201915b50505050509080600101805461032990610954565b80601f016020809104026020016040519081016040528092919081815260200182805461035590610954565b80156103a05780601f10610377576101008083540402835291602001916103a0565b820191905f5260205f20905b81548152906001019060200180831161038357829003601f168201915b5050505050908060020154905083565b60605f80546103be90610954565b80601f01602080910402602001604051908101604052809291908181526020018280546103ea90610954565b80156104355780601f1061040c57610100808354040283529160200191610435565b820191905f5260205f20905b81548152906001019060200180831161041857829003601f168201915b5050505050905090565b60405180606001604052808481526020018381526020018281525060125f3373ffffffffffffffffffffffffffffffffffffffff1673ffffffffffffffffffffffffffffffffffffffff1681526020019081526020015f205f820151815f0190816104aa9190610b21565b5060208201518160010190816104c09190610b21565b5060408201518160020155905050505050565b60405180604001604052805f67ffffffffffffffff1681526020015f67ffffffffffffffff1681525090565b5f67ffffffffffffffff82169050919050565b61051b816104ff565b82525050565b604082015f8201516105355f850182610512565b5060208201516105486020850182610512565b50505050565b5f6040820190506105615f830184610521565b92915050565b5f604051905090565b5f80fd5b5f80fd5b5f80fd5b5f80fd5b5f601f19601f8301169050919050565b7f4e487b71000000000000000000000000000000000000000000000000000000005f52604160045260245ffd5b6105c682610580565b810181811067ffffffffffffffff821117156105e5576105e4610590565b5b80604052505050565b5f6105f7610567565b905061060382826105bd565b919050565b5f67ffffffffffffffff82111561062257610621610590565b5b61062b82610580565b9050602081019050919050565b828183375f83830152505050565b5f61065861065384610608565b6105ee565b9050828152602081018484840111156106745761067361057c565b5b61067f848285610638565b509392505050565b5f82601f83011261069b5761069a610578565b5b81356106ab848260208601610646565b91505092915050565b5f602082840312156106c9576106c8610570565b5b5f82013567ffffffffffffffff8111156106e6576106e5610574565b5b6106f284828501610687565b91505092915050565b5f73ffffffffffffffffffffffffffffffffffffffff82169050919050565b5f610724826106fb565b9050919050565b6107348161071a565b811461073e575f80fd5b50565b5f8135905061074f8161072b565b92915050565b5f6020828403121561076a57610769610570565b5b5f61077784828501610741565b91505092915050565b5f81519050919050565b5f82825260208201905092915050565b5f5b838110156107b757808201518184015260208101905061079c565b5f8484015250505050565b5f6107cc82610780565b6107d6818561078a565b93506107e681856020860161079a565b6107ef81610580565b840191505092915050565b5f819050919050565b61080c816107fa565b82525050565b5f6060820190508181035f83015261082a81866107c2565b9050818103602083015261083e81856107c2565b905061084d6040830184610803565b949350505050565b5f6020820190508181035f83015261086d81846107c2565b905092915050565b61087e816107fa565b8114610888575f80fd5b50565b5f8135905061089981610875565b92915050565b5f805f606084860312156108b6576108b5610570565b5b5f84013567ffffffffffffffff8111156108d3576108d2610574565b5b6108df86828701610687565b935050602084013567ffffffffffffffff811115610900576108ff610574565b5b61090c86828701610687565b925050604061091d8682870161088b565b9150509250925092565b7f4e487b71000000000000000000000000000000000000000000000000000000005f52602260045260245ffd5b5f600282049050600182168061096b57607f821691505b60208210810361097e5761097d610927565b5b50919050565b5f819050815f5260205f209050919050565b5f6020601f8301049050919050565b5f82821b905092915050565b5f600883026109e07fffffffffffffffffffffffffffffffffffffffffffffffffffffffffffffffff826109a5565b6109ea86836109a5565b95508019841693508086168417925050509392505050565b5f819050919050565b5f610a25610a20610a1b846107fa565b610a02565b6107fa565b9050919050565b5f819050919050565b610a3e83610a0b565b610a52610a4a82610a2c565b8484546109b1565b825550505050565b5f90565b610a66610a5a565b610a71818484610a35565b505050565b5b81811015610a9457610a895f82610a5e565b600181019050610a77565b5050565b601f821115610ad957610aaa81610984565b610ab384610996565b81016020851015610ac2578190505b610ad6610ace85610996565b830182610a76565b50505b505050565b5f82821c905092915050565b5f610af95f1984600802610ade565b1980831691505092915050565b5f610b118383610aea565b9150826002028217905092915050565b610b2a82610780565b67ffffffffffffffff811115610b4357610b42610590565b5b610b4d8254610954565b610b58828285610a98565b5f60209050601f831160018114610b89575f8415610b77578287015190505b610b818582610b06565b865550610be8565b601f198416610b9786610984565b5f5b82811015610bbe57848901518255600182019150602085019450602081019050610b99565b86831015610bdb5784890151610bd7601f891682610aea565b8355505b6001600288020188555050505b505050505050565b5f81905092915050565b7f5472756d700000000000000000000000000000000000000000000000000000005f82015250565b5f610c2e600583610bf0565b9150610c3982610bfa565b600582019050919050565b5f610c4e82610c22565b9150819050919050565b5f8154610c6481610954565b610c6e8186610bf0565b9450600182165f8114610c885760018114610c9d57610ccf565b60ff1983168652811515820286019350610ccf565b610ca685610984565b5f5b83811015610cc757815481890152600182019150602081019050610ca8565b838801955050505b50505092915050565b5f610ce38284610c58565b915081905092915050565b7f4e487b71000000000000000000000000000000000000000000000000000000005f52601160045260245ffd5b5f610d25826104ff565b9150610d30836104ff565b9250828201905067ffffffffffffffff811115610d5057610d4f610cee565b5b9291505056fea264697066735822122022110334dec20f43c5227b0babd5accce098b30d95198a9d9c425f668af520e164736f6c63430008150033",
  "immutableReferences": {},
  "source": "// SPDX-License-Identifier: MIT\npragma solidity ^0.8.0;\n\n\ncontract Election {\n    string candidate; // Trump, Harris, etc\n    address[16] voter;\n\n    struct Counts {\n        uint64 red_total;\n        uint64 blue_total;\n    }\n\n    Counts count;\n\n    constructor() {\n        count = Counts(0, 0);\n    }\n\n    function Vote(string memory _candidate) public {\n        candidate = _candidate;\n        // Vote function is entirely two-party system for this basic example\n        if (keccak256(abi.encodePacked(candidate)) == (keccak256(abi.encodePacked(\"Trump\")))) {\n            count.red_total += 1;\n        }\n        else {\n            count.blue_total += 1;\n        }\n    }\n\n    function GetVote() public view returns(string memory) {\n        return candidate;\n    }\n\n    function GetCount() public view returns(Counts memory) {\n        return count;\n    }\n\n    struct Voter {\n        string firstName;\n        string lastName;\n        uint voterId;\n    }\n\n    mapping(address => Voter) public voters;\n\n    function registerVoter(string memory _firstName, string memory _lastName, uint _voterId) public {\n        voters[msg.sender] = Voter(_firstName, _lastName, _voterId);\n    }\n}",
  "sourcePath": "/home/ben/Programming/CSUS/CSC 196D/VotingSystem/backend/contracts/election.sol",
  "compiler": {
    "name": "solc",
    "version": "0.8.21+commit.d9974bed.Emscripten.clang"
  },
  "schemaVersion": "3.4.16",
  "updatedAt": "2024-11-19T03:31:37.737Z",
  "devdoc": {
    "kind": "dev",
    "methods": {},
    "version": 1
  },
  "userdoc": {
    "kind": "user",
    "methods": {},
    "version": 1
  }
}