{
  "contractName": "Election",
  "abi": [
    {
      "inputs": [],
      "stateMutability": "nonpayable",
      "type": "constructor"
    },
    {
      "inputs": [
        {
          "internalType": "address",
          "name": "",
          "type": "address"
        }
      ],
      "name": "voters",
      "outputs": [
        {
          "internalType": "string",
          "name": "firstName",
          "type": "string"
        },
        {
          "internalType": "string",
          "name": "lastName",
          "type": "string"
        },
        {
          "internalType": "uint256",
          "name": "voterId",
          "type": "uint256"
        }
      ],
      "stateMutability": "view",
      "type": "function"
    },
    {
      "inputs": [
        {
          "internalType": "string",
          "name": "_candidate",
          "type": "string"
        }
      ],
      "name": "Vote",
      "outputs": [],
      "stateMutability": "nonpayable",
      "type": "function"
    },
    {
      "inputs": [],
      "name": "GetVote",
      "outputs": [
        {
          "internalType": "string",
          "name": "",
          "type": "string"
        }
      ],
      "stateMutability": "view",
      "type": "function"
    },
    {
      "inputs": [],
      "name": "GetCount",
      "outputs": [
        {
          "components": [
            {
              "internalType": "uint64",
              "name": "red_total",
              "type": "uint64"
            },
            {
              "internalType": "uint64",
              "name": "blue_total",
              "type": "uint64"
            }
          ],
          "internalType": "struct Election.Counts",
          "name": "",
          "type": "tuple"
        }
      ],
      "stateMutability": "view",
      "type": "function"
    },
    {
      "inputs": [
        {
          "internalType": "string",
          "name": "_firstName",
          "type": "string"
        },
        {
          "internalType": "string",
          "name": "_lastName",
          "type": "string"
        },
        {
          "internalType": "uint256",
          "name": "_voterId",
          "type": "uint256"
        }
      ],
      "name": "registerVoter",
      "outputs": [],
      "stateMutability": "nonpayable",
      "type": "function"
    }
  ],
  "bytecode": "0x6080604052348015600e575f5ffd5b50604080518082019091525f808252602090910152601180546001600160801b03191690556107fc806100405f395ff3fe608060405234801561000f575f5ffd5b5060043610610055575f3560e01c80630ab9397114610059578063323082d7146100b1578063a3ec138d146100c6578063a6051de7146100e8578063ae17a82a146100fd575b5f5ffd5b6040805180820182525f8082526020918201528151808301835260115467ffffffffffffffff808216808452600160401b90920481169284019283528451918252915190911691810191909152015b60405180910390f35b6100c46100bf36600461049b565b610110565b005b6100d96100d43660046104d5565b6101e1565b6040516100a893929190610530565b6100f061030e565b6040516100a89190610565565b6100c461010b366004610577565b61039d565b5f61011b8282610668565b506040516405472756d760dc1b6020820152602501604051602081830303815290604052805190602001205f6040516020016101579190610723565b60405160208183030381529060405280519060200120036101ba5760118054600191905f9061019190849067ffffffffffffffff16610794565b92506101000a81548167ffffffffffffffff021916908367ffffffffffffffff16021790555050565b6011805460019190600890610191908490600160401b900467ffffffffffffffff16610794565b60126020525f90815260409020805481906101fb906105e4565b80601f0160208091040260200160405190810160405280929190818152602001828054610227906105e4565b80156102725780601f1061024957610100808354040283529160200191610272565b820191905f5260205f20905b81548152906001019060200180831161025557829003601f168201915b505050505090806001018054610287906105e4565b80601f01602080910402602001604051908101604052809291908181526020018280546102b3906105e4565b80156102fe5780601f106102d5576101008083540402835291602001916102fe565b820191905f5260205f20905b8154815290600101906020018083116102e157829003601f168201915b5050505050908060020154905083565b60605f805461031c906105e4565b80601f0160208091040260200160405190810160405280929190818152602001828054610348906105e4565b80156103935780601f1061036a57610100808354040283529160200191610393565b820191905f5260205f20905b81548152906001019060200180831161037657829003601f168201915b5050505050905090565b604080516060810182528481526020808201859052818301849052335f908152601290915291909120815181906103d49082610668565b50602082015160018201906103e99082610668565b5060408201518160020155905050505050565b634e487b7160e01b5f52604160045260245ffd5b5f82601f83011261041f575f5ffd5b813567ffffffffffffffff811115610439576104396103fc565b604051601f8201601f19908116603f0116810167ffffffffffffffff81118282101715610468576104686103fc565b60405281815283820160200185101561047f575f5ffd5b816020850160208301375f918101602001919091529392505050565b5f602082840312156104ab575f5ffd5b813567ffffffffffffffff8111156104c1575f5ffd5b6104cd84828501610410565b949350505050565b5f602082840312156104e5575f5ffd5b81356001600160a01b03811681146104fb575f5ffd5b9392505050565b5f81518084528060208401602086015e5f602082860101526020601f19601f83011685010191505092915050565b606081525f6105426060830186610502565b82810360208401526105548186610502565b915050826040830152949350505050565b602081525f6104fb6020830184610502565b5f5f5f60608486031215610589575f5ffd5b833567ffffffffffffffff81111561059f575f5ffd5b6105ab86828701610410565b935050602084013567ffffffffffffffff8111156105c7575f5ffd5b6105d386828701610410565b925050604084013590509250925092565b600181811c908216806105f857607f821691505b60208210810361061657634e487b7160e01b5f52602260045260245ffd5b50919050565b601f82111561066357805f5260205f20601f840160051c810160208510156106415750805b601f840160051c820191505b81811015610660575f815560010161064d565b50505b505050565b815167ffffffffffffffff811115610682576106826103fc565b6106968161069084546105e4565b8461061c565b6020601f8211600181146106c8575f83156106b15750848201515b5f19600385901b1c1916600184901b178455610660565b5f84815260208120601f198516915b828110156106f757878501518255602094850194600190920191016106d7565b508482101561071457868401515f19600387901b60f8161c191681555b50505050600190811b01905550565b5f5f8354610730816105e4565b600182168015610747576001811461075c57610789565b60ff1983168652811515820286019350610789565b865f5260205f205f5b8381101561078157815488820152600190910190602001610765565b505081860193505b509195945050505050565b67ffffffffffffffff81811683821601908111156107c057634e487b7160e01b5f52601160045260245ffd5b9291505056fea2646970667358221220747917013ead7e72000fc1d83018df5e615ac0315dcfb5cc9a0f1d9f525ba74b64736f6c634300081c0033",
  "immutableReferences": {},
  "source": "// SPDX-License-Identifier: MIT\npragma solidity ^0.8.0;\n\n\ncontract Election {\n    string candidate; // Trump, Harris, etc\n    address[16] voter;\n\n    struct Counts {\n        uint64 red_total;\n        uint64 blue_total;\n    }\n\n    Counts count;\n\n    constructor() {\n        count = Counts(0, 0);\n    }\n\n    function Vote(string memory _candidate) public {\n        candidate = _candidate;\n        // Vote function is entirely two-party system for this basic example\n        if (keccak256(abi.encodePacked(candidate)) == (keccak256(abi.encodePacked(\"Trump\")))) {\n            count.red_total += 1;\n        }\n        else {\n            count.blue_total += 1;\n        }\n    }\n\n    function GetVote() public view returns(string memory) {\n        return candidate;\n    }\n\n    function GetCount() public view returns(Counts memory) {\n        return count;\n    }\n\n    struct Voter {\n        string firstName;\n        string lastName;\n        uint voterId;\n    }\n\n    mapping(address => Voter) public voters;\n\n    function registerVoter(string memory _firstName, string memory _lastName, uint _voterId) public {\n        voters[msg.sender] = Voter(_firstName, _lastName, _voterId);\n    }\n}",
  "sourcePath": "/home/ben/Programming/CSUS/CSC 196D/VotingSystem/backend/contracts/election.sol",
  "compiler": {
    "name": "solc",
    "version": "0.8.28+commit.7893614a.Emscripten.clang"
  },
  "schemaVersion": "3.4.16",
  "updatedAt": "2024-11-19T18:31:40.760Z",
  "devdoc": {
    "kind": "dev",
    "methods": {},
    "version": 1
  },
  "userdoc": {
    "kind": "user",
    "methods": {},
    "version": 1
  }
}