{
  "contractName": "Election",
  "abi": [
    {
      "inputs": [],
      "stateMutability": "nonpayable",
      "type": "constructor"
    },
    {
      "inputs": [],
      "name": "count",
      "outputs": [
        {
          "internalType": "uint256",
          "name": "red_total",
          "type": "uint256"
        },
        {
          "internalType": "uint256",
          "name": "blue_total",
          "type": "uint256"
        }
      ],
      "stateMutability": "view",
      "type": "function",
      "constant": true
    },
    {
      "inputs": [],
      "name": "ended",
      "outputs": [
        {
          "internalType": "bool",
          "name": "",
          "type": "bool"
        }
      ],
      "stateMutability": "view",
      "type": "function",
      "constant": true
    },
    {
      "inputs": [],
      "name": "owner",
      "outputs": [
        {
          "internalType": "address",
          "name": "",
          "type": "address"
        }
      ],
      "stateMutability": "view",
      "type": "function",
      "constant": true
    },
    {
      "inputs": [],
      "name": "started",
      "outputs": [
        {
          "internalType": "bool",
          "name": "",
          "type": "bool"
        }
      ],
      "stateMutability": "view",
      "type": "function",
      "constant": true
    },
    {
      "inputs": [],
      "name": "startElection",
      "outputs": [],
      "stateMutability": "nonpayable",
      "type": "function"
    },
    {
      "inputs": [],
      "name": "endElection",
      "outputs": [],
      "stateMutability": "nonpayable",
      "type": "function"
    },
    {
      "inputs": [
        {
          "internalType": "string",
          "name": "_candidate",
          "type": "string"
        }
      ],
      "name": "Vote",
      "outputs": [],
      "stateMutability": "nonpayable",
      "type": "function"
    },
    {
      "inputs": [],
      "name": "GetCount",
      "outputs": [
        {
          "internalType": "uint256",
          "name": "redVotes",
          "type": "uint256"
        },
        {
          "internalType": "uint256",
          "name": "blueVotes",
          "type": "uint256"
        }
      ],
      "stateMutability": "view",
      "type": "function",
      "constant": true
    },
    {
      "inputs": [],
      "name": "GetResults",
      "outputs": [
        {
          "internalType": "uint256",
          "name": "redVotes",
          "type": "uint256"
        },
        {
          "internalType": "uint256",
          "name": "blueVotes",
          "type": "uint256"
        }
      ],
      "stateMutability": "view",
      "type": "function",
      "constant": true
    }
  ],
  "bytecode": "0x608060405234801561001057600080fd5b50600380546001600160b01b0319163361ffff60a01b19161790556107488061003a6000396000f3fe608060405234801561001057600080fd5b50600436106100935760003560e01c80631f2698ab116100665780631f2698ab146100f7578063323082d71461010b57806359f784681461012057806362d73eb8146101285780638da5cb5b1461013057600080fd5b806306661abd14610098578063088709c4146100c05780630ab93971146100c857806312fa6feb146100d3575b600080fd5b6000546001546100a6919082565b604080519283526020830191909152015b60405180910390f35b6100a661015b565b6000546001546100a6565b6003546100e790600160a81b900460ff1681565b60405190151581526020016100b7565b6003546100e790600160a01b900460ff1681565b61011e6101193660046105ae565b6101ca565b005b61011e610415565b61011e610507565b600354610143906001600160a01b031681565b6040516001600160a01b0390911681526020016100b7565b6003546000908190600160a81b900460ff166101be5760405162461bcd60e51b815260206004820152601e60248201527f456c656374696f6e206973207374696c6c20696e2070726f67726573732e000060448201526064015b60405180910390fd5b50506000546001549091565b600354600160a01b900460ff166102235760405162461bcd60e51b815260206004820152601c60248201527f456c656374696f6e20686173206e6f742073746172746564207965740000000060448201526064016101b5565b600354600160a81b900460ff161561027d5760405162461bcd60e51b815260206004820152601a60248201527f456c656374696f6e2068617320616c726561647920656e64656400000000000060448201526064016101b5565b3360009081526002602052604090205460ff16156102dd5760405162461bcd60e51b815260206004820152601f60248201527f205468697320616464726573732068617320616c726561647920766f7465640060448201526064016101b5565b6040516214995960ea1b60208201526023016040516020818303038152906040528051906020012081604051602001610316919061065f565b6040516020818303038152906040528051906020012003610351576001600080016000828254610346919061068e565b909155506103f89050565b60405163426c756560e01b6020820152602401604051602081830303815290604052805190602001208160405160200161038b919061065f565b60405160208183030381529060405280519060200120036103bc57600160006001016000828254610346919061068e565b60405162461bcd60e51b8152602060048201526011602482015270496e76616c69642063616e64696461746560781b60448201526064016101b5565b50336000908152600260205260409020805460ff19166001179055565b6003546001600160a01b0316331461043f5760405162461bcd60e51b81526004016101b5906106b5565b600354600160a01b900460ff166104985760405162461bcd60e51b815260206004820152601c60248201527f456c656374696f6e20686173206e6f742073746172746564207965740000000060448201526064016101b5565b600354600160a81b900460ff16156104f25760405162461bcd60e51b815260206004820152601a60248201527f456c656374696f6e2068617320616c726561647920656e64656400000000000060448201526064016101b5565b6003805460ff60a81b1916600160a81b179055565b6003546001600160a01b031633146105315760405162461bcd60e51b81526004016101b5906106b5565b600354600160a01b900460ff16156105825760405162461bcd60e51b8152602060048201526014602482015273115b1958dd1a5bdb881a185cc81cdd185c9d195960621b60448201526064016101b5565b6003805461ffff60a01b1916600160a01b179055565b634e487b7160e01b600052604160045260246000fd5b6000602082840312156105c057600080fd5b813567ffffffffffffffff808211156105d857600080fd5b818401915084601f8301126105ec57600080fd5b8135818111156105fe576105fe610598565b604051601f8201601f19908116603f0116810190838211818310171561062657610626610598565b8160405282815287602084870101111561063f57600080fd5b826020860160208301376000928101602001929092525095945050505050565b6000825160005b818110156106805760208186018101518583015201610666565b506000920191825250919050565b808201808211156106af57634e487b7160e01b600052601160045260246000fd5b92915050565b60208082526037908201527f5468697320616374696f6e206973206f6e6c79206170706c696361626c65207460408201527f6f2074686520656c6563746f72616c20636f6c6c65676500000000000000000060608201526080019056fea264697066735822122095ec8889dfc1bc53de87eb3100440770e25fd029d0fcd67f7b9678867e5451cb64736f6c63430008110033",
  "immutableReferences": {},
  "source": "// SPDX-License-Identifier: MIT\npragma solidity ^0.8.0;\n\ncontract Election {\n    struct Counts {\n        uint256 red_total; // Total votes for red candidate\n        uint256 blue_total; // Total votes for blue candidate\n    }\n\n    Counts public count;\n\n    mapping(address => bool) private hasVoted;\n\n    address public owner;\n    bool public started;\n    bool public ended;\n\n    constructor()\n    {\n        owner = msg.sender;\n        started = false;\n        ended = false;\n    }\n\n    modifier onlyOwner()\n    {\n        require(msg.sender == owner, \"This action is only applicable to the electoral college\");\n        _;\n    }\n\n    function startElection() public onlyOwner\n    {\n        require(!started, \"Election has started\");\n        started = true;\n        ended = false;\n    }\n\n    function endElection() public onlyOwner\n    {\n        require(started, \"Election has not started yet\");\n        require (!ended, \"Election has already ended\");\n        ended = true;\n    }\n\n\n\n    // Vote function: Cast a vote for \"Red\" or \"Blue\"\n    function Vote(string memory _candidate) public {\n        // Ensure the voter hasn't already voted\n        require(started, \"Election has not started yet\");\n        require (!ended, \"Election has already ended\");\n        require(!hasVoted[msg.sender], \" This address has already voted\");\n\n        // Check the candidate and increment the respective count\n        if (keccak256(abi.encodePacked(_candidate)) == keccak256(abi.encodePacked(\"Red\"))) {\n            count.red_total += 1;\n        } else if (keccak256(abi.encodePacked(_candidate)) == keccak256(abi.encodePacked(\"Blue\"))) {\n            count.blue_total += 1;\n        } else {\n            revert(\"Invalid candidate\"); // Reject invalid candidates\n        }\n\n        // Mark the sender as having voted\n        hasVoted[msg.sender] = true;\n    }\n\n    // GetCount function: Return the current vote totals\n    function GetCount() public view returns (uint256 redVotes, uint256 blueVotes) {\n        return (count.red_total, count.blue_total);\n    }\n\n    function GetResults() public view returns (uint256 redVotes, uint256 blueVotes)\n    {\n        require(ended, \"Election is still in progress.\");\n        return (count.red_total, count.blue_total);\n    }\n\n}\n",
  "sourcePath": "/home/prashant/Desktop/Blockchain196/backend/contracts/election.sol",
  "compiler": {
    "name": "solc",
    "version": "0.8.17+commit.8df45f5f.Emscripten.clang"
  },
  "schemaVersion": "3.4.16",
  "updatedAt": "2024-11-27T00:34:38.679Z",
  "networkType": "ethereum",
  "devdoc": {
    "kind": "dev",
    "methods": {},
    "version": 1
  },
  "userdoc": {
    "kind": "user",
    "methods": {},
    "version": 1
  }
}